{
  "contractName": "productTEMR",
  "abi": [
    {
      "inputs": [],
      "stateMutability": "nonpayable",
      "type": "constructor"
    },
    {
      "inputs": [
        {
          "internalType": "address",
          "name": "",
          "type": "address"
        },
        {
          "internalType": "uint256",
          "name": "",
          "type": "uint256"
        }
      ],
      "name": "client",
      "outputs": [
        {
          "internalType": "string",
          "name": "TamerType",
          "type": "string"
        },
        {
          "internalType": "uint256",
          "name": "TamerId",
          "type": "uint256"
        },
        {
          "internalType": "uint256",
          "name": "productBoxNum",
          "type": "uint256"
        },
        {
          "internalType": "uint256",
          "name": "price",
          "type": "uint256"
        },
        {
          "internalType": "uint256",
          "name": "ProductDOP",
          "type": "uint256"
        },
        {
          "internalType": "uint256",
          "name": "ProductExp",
          "type": "uint256"
        },
        {
          "internalType": "address",
          "name": "owner",
          "type": "address"
        },
        {
          "internalType": "bool",
          "name": "forSell",
          "type": "bool"
        }
      ],
      "stateMutability": "view",
      "type": "function"
    },
    {
      "inputs": [
        {
          "internalType": "address",
          "name": "",
          "type": "address"
        }
      ],
      "name": "isFarmer",
      "outputs": [
        {
          "internalType": "bool",
          "name": "",
          "type": "bool"
        }
      ],
      "stateMutability": "view",
      "type": "function"
    },
    {
      "inputs": [],
      "name": "isOwner",
      "outputs": [
        {
          "internalType": "address",
          "name": "",
          "type": "address"
        }
      ],
      "stateMutability": "view",
      "type": "function"
    },
    {
      "inputs": [
        {
          "internalType": "uint256",
          "name": "",
          "type": "uint256"
        }
      ],
      "name": "tamerIndex",
      "outputs": [
        {
          "internalType": "string",
          "name": "TamerType",
          "type": "string"
        },
        {
          "internalType": "uint256",
          "name": "TamerId",
          "type": "uint256"
        },
        {
          "internalType": "uint256",
          "name": "productBoxNum",
          "type": "uint256"
        },
        {
          "internalType": "uint256",
          "name": "price",
          "type": "uint256"
        },
        {
          "internalType": "uint256",
          "name": "ProductDOP",
          "type": "uint256"
        },
        {
          "internalType": "uint256",
          "name": "ProductExp",
          "type": "uint256"
        },
        {
          "internalType": "address",
          "name": "owner",
          "type": "address"
        },
        {
          "internalType": "bool",
          "name": "forSell",
          "type": "bool"
        }
      ],
      "stateMutability": "view",
      "type": "function"
    },
    {
      "inputs": [],
      "name": "name",
      "outputs": [
        {
          "internalType": "string",
          "name": "",
          "type": "string"
        }
      ],
      "stateMutability": "view",
      "type": "function"
    },
    {
      "inputs": [],
      "name": "symbol",
      "outputs": [
        {
          "internalType": "string",
          "name": "",
          "type": "string"
        }
      ],
      "stateMutability": "view",
      "type": "function"
    },
    {
      "inputs": [
        {
          "internalType": "uint256",
          "name": "FarmerId",
          "type": "uint256"
        },
        {
          "internalType": "uint256",
          "name": "Account",
          "type": "uint256"
        },
        {
          "internalType": "string",
          "name": "Location",
          "type": "string"
        }
      ],
      "name": "addFarmer",
      "outputs": [],
      "stateMutability": "nonpayable",
      "type": "function"
    },
    {
      "inputs": [
        {
          "internalType": "string",
          "name": "TamerType",
          "type": "string"
        },
        {
          "internalType": "uint256",
          "name": "_TamerId",
          "type": "uint256"
        },
        {
          "internalType": "uint256",
          "name": "_ProductBoxNum",
          "type": "uint256"
        },
        {
          "internalType": "uint256",
          "name": "_price",
          "type": "uint256"
        },
        {
          "internalType": "uint256",
          "name": "_ProductDOP",
          "type": "uint256"
        },
        {
          "internalType": "uint256",
          "name": "_ProductExp",
          "type": "uint256"
        }
      ],
      "name": "addProduct",
      "outputs": [],
      "stateMutability": "nonpayable",
      "type": "function"
    },
    {
      "inputs": [
        {
          "internalType": "uint256",
          "name": "_TamerIndex",
          "type": "uint256"
        },
        {
          "internalType": "uint256",
          "name": "_price",
          "type": "uint256"
        }
      ],
      "name": "changePrice",
      "outputs": [],
      "stateMutability": "nonpayable",
      "type": "function"
    },
    {
      "inputs": [
        {
          "internalType": "uint256",
          "name": "_TamerIndex",
          "type": "uint256"
        }
      ],
      "name": "buyTamer",
      "outputs": [],
      "stateMutability": "payable",
      "type": "function"
    }
  ],
  "bytecode": "0x60806040523480156200001157600080fd5b5033600460006101000a81548173ffffffffffffffffffffffffffffffffffffffff021916908373ffffffffffffffffffffffffffffffffffffffff1602179055506040518060400160405280600581526020017f54616d657200000000000000000000000000000000000000000000000000000081525060029080519060200190620000a0929190620000f5565b506040518060400160405280600281526020017f544d00000000000000000000000000000000000000000000000000000000000081525060039080519060200190620000ee929190620000f5565b506200020a565b8280546200010390620001a5565b90600052602060002090601f01602090048101928262000127576000855562000173565b82601f106200014257805160ff191683800117855562000173565b8280016001018555821562000173579182015b828111156200017257825182559160200191906001019062000155565b5b50905062000182919062000186565b5090565b5b80821115620001a157600081600090555060010162000187565b5090565b60006002820490506001821680620001be57607f821691505b60208210811415620001d557620001d4620001db565b5b50919050565b7f4e487b7100000000000000000000000000000000000000000000000000000000600052602260045260246000fd5b6112bc806200021a6000396000f3fe6080604052600436106100915760003560e01c8063af94549511610059578063af94549514610177578063b3de019c146101bb578063b9429069146101e4578063bfb6c62514610221578063f65b67cb1461024a57610091565b806306fdde03146100965780631ffa0b30146100c15780638f32d59b146100dd57806395d89b41146101085780639eeb125b14610133575b600080fd5b3480156100a257600080fd5b506100ab610273565b6040516100b89190610f31565b60405180910390f35b6100db60048036038101906100d69190610d09565b610305565b005b3480156100e957600080fd5b506100f261048d565b6040516100ff9190610efb565b60405180910390f35b34801561011457600080fd5b5061011d6104b3565b60405161012a9190610f31565b60405180910390f35b34801561013f57600080fd5b5061015a60048036038101906101559190610d09565b610545565b60405161016e989796959493929190610f53565b60405180910390f35b34801561018357600080fd5b5061019e60048036038101906101999190610c2c565b610642565b6040516101b2989796959493929190610f53565b60405180910390f35b3480156101c757600080fd5b506101e260048036038101906101dd9190610d32565b61074c565b005b3480156101f057600080fd5b5061020b60048036038101906102069190610c03565b6107fe565b6040516102189190610f16565b60405180910390f35b34801561022d57600080fd5b5061024860048036038101906102439190610c68565b61081e565b005b34801561025657600080fd5b50610271600480360381019061026c9190610d6e565b6109f3565b005b6060600280546102829061113f565b80601f01602080910402602001604051908101604052809291908181526020018280546102ae9061113f565b80156102fb5780601f106102d0576101008083540402835291602001916102fb565b820191906000526020600020905b8154815290600101906020018083116102de57829003601f168201915b5050505050905090565b6005600082815260200190815260200160002060060160149054906101000a900460ff161515600115151461036f576040517f08c379a000000000000000000000000000000000000000000000000000000000815260040161036690611018565b60405180910390fd5b60056000828152602001908152602001600020600301543410156103c8576040517f08c379a00000000000000000000000000000000000000000000000000000000081526004016103bf90610ff8565b60405180910390fd5b6005600082815260200190815260200160002060060160009054906101000a900473ffffffffffffffffffffffffffffffffffffffff1673ffffffffffffffffffffffffffffffffffffffff166108fc60056000848152602001908152602001600020600301549081150290604051600060405180830381858888f1935050505015801561045a573d6000803e3d6000fd5b5060006005600083815260200190815260200160002060060160146101000a81548160ff02191690831515021790555050565b600460009054906101000a900473ffffffffffffffffffffffffffffffffffffffff1681565b6060600380546104c29061113f565b80601f01602080910402602001604051908101604052809291908181526020018280546104ee9061113f565b801561053b5780601f106105105761010080835404028352916020019161053b565b820191906000526020600020905b81548152906001019060200180831161051e57829003601f168201915b5050505050905090565b60056020528060005260406000206000915090508060000180546105689061113f565b80601f01602080910402602001604051908101604052809291908181526020018280546105949061113f565b80156105e15780601f106105b6576101008083540402835291602001916105e1565b820191906000526020600020905b8154815290600101906020018083116105c457829003601f168201915b5050505050908060010154908060020154908060030154908060040154908060050154908060060160009054906101000a900473ffffffffffffffffffffffffffffffffffffffff16908060060160149054906101000a900460ff16905088565b6006602052816000526040600020602052806000526040600020600091509150508060000180546106729061113f565b80601f016020809104026020016040519081016040528092919081815260200182805461069e9061113f565b80156106eb5780601f106106c0576101008083540402835291602001916106eb565b820191906000526020600020905b8154815290600101906020018083116106ce57829003601f168201915b5050505050908060010154908060020154908060030154908060040154908060050154908060060160009054906101000a900473ffffffffffffffffffffffffffffffffffffffff16908060060160149054906101000a900460ff16905088565b60011515600860003373ffffffffffffffffffffffffffffffffffffffff1673ffffffffffffffffffffffffffffffffffffffff16815260200190815260200160002060009054906101000a900460ff161515146107df576040517f08c379a00000000000000000000000000000000000000000000000000000000081526004016107d690610fd8565b60405180910390fd5b8060056000848152602001908152602001600020600301819055505050565b60086020528060005260406000206000915054906101000a900460ff1681565b60011515600860003373ffffffffffffffffffffffffffffffffffffffff1673ffffffffffffffffffffffffffffffffffffffff16815260200190815260200160002060009054906101000a900460ff161515146108b1576040517f08c379a00000000000000000000000000000000000000000000000000000000081526004016108a890610fd8565b60405180910390fd5b60006040518061010001604052808881526020018781526020018681526020018581526020018481526020018381526020013373ffffffffffffffffffffffffffffffffffffffff168152602001600115158152509050806005600080600081548092919061091f90611171565b919050558152602001908152602001600020600082015181600001908051906020019061094d929190610ace565b506020820151816001015560408201518160020155606082015181600301556080820151816004015560a0820151816005015560c08201518160060160006101000a81548173ffffffffffffffffffffffffffffffffffffffff021916908373ffffffffffffffffffffffffffffffffffffffff16021790555060e08201518160060160146101000a81548160ff02191690831515021790555090505050505050505050565b60006040518060600160405280858152602001848152602001838152509050806007600060016000815480929190610a2a90611171565b91905055815260200190815260200160002060008201518160000155602082015181600101556040820151816002019080519060200190610a6c929190610ace565b509050506001600860003373ffffffffffffffffffffffffffffffffffffffff1673ffffffffffffffffffffffffffffffffffffffff16815260200190815260200160002060006101000a81548160ff02191690831515021790555050505050565b828054610ada9061113f565b90600052602060002090601f016020900481019282610afc5760008555610b43565b82601f10610b1557805160ff1916838001178555610b43565b82800160010185558215610b43579182015b82811115610b42578251825591602001919060010190610b27565b5b509050610b509190610b54565b5090565b5b80821115610b6d576000816000905550600101610b55565b5090565b6000610b84610b7f84611069565b611038565b905082815260208101848484011115610b9c57600080fd5b610ba78482856110fd565b509392505050565b600081359050610bbe81611258565b92915050565b600082601f830112610bd557600080fd5b8135610be5848260208601610b71565b91505092915050565b600081359050610bfd8161126f565b92915050565b600060208284031215610c1557600080fd5b6000610c2384828501610baf565b91505092915050565b60008060408385031215610c3f57600080fd5b6000610c4d85828601610baf565b9250506020610c5e85828601610bee565b9150509250929050565b60008060008060008060c08789031215610c8157600080fd5b600087013567ffffffffffffffff811115610c9b57600080fd5b610ca789828a01610bc4565b9650506020610cb889828a01610bee565b9550506040610cc989828a01610bee565b9450506060610cda89828a01610bee565b9350506080610ceb89828a01610bee565b92505060a0610cfc89828a01610bee565b9150509295509295509295565b600060208284031215610d1b57600080fd5b6000610d2984828501610bee565b91505092915050565b60008060408385031215610d4557600080fd5b6000610d5385828601610bee565b9250506020610d6485828601610bee565b9150509250929050565b600080600060608486031215610d8357600080fd5b6000610d9186828701610bee565b9350506020610da286828701610bee565b925050604084013567ffffffffffffffff811115610dbf57600080fd5b610dcb86828701610bc4565b9150509250925092565b610dde816110b5565b82525050565b610ded816110c7565b82525050565b6000610dfe82611099565b610e0881856110a4565b9350610e1881856020860161110c565b610e2181611247565b840191505092915050565b6000610e39601a836110a4565b91507f796f7520617265206e6f742074686520617574687572697a65640000000000006000830152602082019050919050565b6000610e796011836110a4565b91507f636865636b2074686520616d6f756e74200000000000000000000000000000006000830152602082019050919050565b6000610eb9600b836110a4565b91507f4e6f2070726f64756374200000000000000000000000000000000000000000006000830152602082019050919050565b610ef5816110f3565b82525050565b6000602082019050610f106000830184610dd5565b92915050565b6000602082019050610f2b6000830184610de4565b92915050565b60006020820190508181036000830152610f4b8184610df3565b905092915050565b6000610100820190508181036000830152610f6e818b610df3565b9050610f7d602083018a610eec565b610f8a6040830189610eec565b610f976060830188610eec565b610fa46080830187610eec565b610fb160a0830186610eec565b610fbe60c0830185610dd5565b610fcb60e0830184610de4565b9998505050505050505050565b60006020820190508181036000830152610ff181610e2c565b9050919050565b6000602082019050818103600083015261101181610e6c565b9050919050565b6000602082019050818103600083015261103181610eac565b9050919050565b6000604051905081810181811067ffffffffffffffff8211171561105f5761105e611218565b5b8060405250919050565b600067ffffffffffffffff82111561108457611083611218565b5b601f19601f8301169050602081019050919050565b600081519050919050565b600082825260208201905092915050565b60006110c0826110d3565b9050919050565b60008115159050919050565b600073ffffffffffffffffffffffffffffffffffffffff82169050919050565b6000819050919050565b82818337600083830152505050565b60005b8381101561112a57808201518184015260208101905061110f565b83811115611139576000848401525b50505050565b6000600282049050600182168061115757607f821691505b6020821081141561116b5761116a6111e9565b5b50919050565b600061117c826110f3565b91507fffffffffffffffffffffffffffffffffffffffffffffffffffffffffffffffff8214156111af576111ae6111ba565b5b600182019050919050565b7f4e487b7100000000000000000000000000000000000000000000000000000000600052601160045260246000fd5b7f4e487b7100000000000000000000000000000000000000000000000000000000600052602260045260246000fd5b7f4e487b7100000000000000000000000000000000000000000000000000000000600052604160045260246000fd5b6000601f19601f8301169050919050565b611261816110b5565b811461126c57600080fd5b50565b611278816110f3565b811461128357600080fd5b5056fea2646970667358221220703e095155a1f4200e3becfc70e13bcec93a3994b7f10c99a4ca5336e9e4dc6b64736f6c63430008000033",
  "immutableReferences": {},
  "source": "// SPDX-License-Identifier: MIT\r\npragma solidity >=0.6.0 <0.8.1;\r\n\r\ncontract productTEMR  {\r\n\r\n    struct Farmer {\r\n        uint FarmerId;\r\n        uint Account;\r\n        string Location;\r\n        \r\n    }\r\n    \r\n      struct Tamer {\r\n        string TamerType;\r\n        uint TamerId;\r\n        uint productBoxNum;\r\n        uint price;\r\n        uint ProductDOP;\r\n        uint ProductExp;\r\n        address owner;\r\n        bool forSell;\r\n    }\r\n    \r\n    uint tamerCounter;\r\n    uint famerCounter;\r\n    string private _name;\r\n    string private _symbol;\r\n    address  public isOwner ;\r\n\r\n\r\n    constructor () {\r\n        isOwner =msg.sender;\r\n        _name = \"Tamer\";\r\n        _symbol = \"TM\";\r\n    }\r\n    \r\n    \r\n\r\n    function name() public view  returns (string memory) {\r\n        return _name;\r\n    }\r\n\r\n\r\n    function symbol() public view  returns (string memory) {\r\n        return _symbol;\r\n    }\r\n\r\n   \r\n    \r\n    mapping(uint => Tamer) public tamerIndex;\r\n    mapping(address => mapping(uint => Tamer)) public client;\r\n    mapping(uint256 => Farmer) private _Farmar;\r\n    mapping(address => bool) public isFarmer;\r\n    \r\n    \r\n    function addFarmer(uint FarmerId, uint Account, string memory Location ) public  {\r\n    Farmer memory newFarmer = Farmer(FarmerId, Account, Location);\r\n    _Farmar[famerCounter++] = newFarmer; \r\n    isFarmer[msg.sender]=true;\r\n    }\r\n\r\n    function addProduct(string memory TamerType ,uint _TamerId, uint _ProductBoxNum, uint _price, uint _ProductDOP, uint _ProductExp ) public  onlyFarmer{\r\n        Tamer memory newProduct = Tamer(TamerType,_TamerId, _ProductBoxNum, _price, _ProductDOP, _ProductExp, msg.sender, true);\r\n        tamerIndex[tamerCounter++] = newProduct;\r\n        }\r\n    \r\n    \r\n  modifier onlyFarmer(){\r\n      \r\n    require(isFarmer[msg.sender] == true , \"you are not the authurized\" );\r\n      _;\r\n    }\r\n     \r\n \r\n    \r\n     \r\n    function changePrice(uint _TamerIndex, uint _price) public  onlyFarmer{\r\n        tamerIndex[_TamerIndex].price = _price;\r\n    }\r\n    \r\n   \r\n    \r\n   function buyTamer(uint _TamerIndex) public  payable {\r\n         require(true == tamerIndex[_TamerIndex].forSell, \"No product \");\r\n\r\n        require(msg.value >= tamerIndex[_TamerIndex].price, \"check the amount \");\r\n        \r\n        payable(tamerIndex[_TamerIndex].owner).transfer(tamerIndex[_TamerIndex].price);\r\n        tamerIndex[_TamerIndex].forSell=false;\r\n\r\n    } \r\n    \r\n\r\n    \r\n}",
  "sourcePath": "/Users/munirah/Downloads/111/contracts/TAMER.sol",
  "compiler": {
    "name": "solc",
    "version": "0.8.0+commit.c7dfd78e.Emscripten.clang"
  },
  "schemaVersion": "3.3.4",
  "updatedAt": "2021-04-19T10:27:05.680Z",
  "devdoc": {
    "kind": "dev",
    "methods": {},
    "version": 1
  },
  "userdoc": {
    "kind": "user",
    "methods": {},
    "version": 1
  }
}