{
  "contractName": "TAMER",
  "abi": [
    {
      "inputs": [],
      "stateMutability": "nonpayable",
      "type": "constructor"
    },
    {
      "inputs": [
        {
          "internalType": "address",
          "name": "",
          "type": "address"
        },
        {
          "internalType": "uint256",
          "name": "",
          "type": "uint256"
        }
      ],
      "name": "client",
      "outputs": [
        {
          "internalType": "string",
          "name": "TamerType",
          "type": "string"
        },
        {
          "internalType": "uint256",
          "name": "TamerId",
          "type": "uint256"
        },
        {
          "internalType": "uint256",
          "name": "productBoxNum",
          "type": "uint256"
        },
        {
          "internalType": "uint256",
          "name": "price",
          "type": "uint256"
        },
        {
          "internalType": "uint256",
          "name": "ProductDOP",
          "type": "uint256"
        },
        {
          "internalType": "uint256",
          "name": "ProductExp",
          "type": "uint256"
        },
        {
          "internalType": "address",
          "name": "owner",
          "type": "address"
        }
      ],
      "stateMutability": "view",
      "type": "function",
      "constant": true
    },
    {
      "inputs": [
        {
          "internalType": "address",
          "name": "",
          "type": "address"
        }
      ],
      "name": "isFarmer",
      "outputs": [
        {
          "internalType": "bool",
          "name": "",
          "type": "bool"
        }
      ],
      "stateMutability": "view",
      "type": "function",
      "constant": true
    },
    {
      "inputs": [],
      "name": "isOwner",
      "outputs": [
        {
          "internalType": "address",
          "name": "",
          "type": "address"
        }
      ],
      "stateMutability": "view",
      "type": "function",
      "constant": true
    },
    {
      "inputs": [
        {
          "internalType": "uint256",
          "name": "",
          "type": "uint256"
        }
      ],
      "name": "tamerIndex",
      "outputs": [
        {
          "internalType": "string",
          "name": "TamerType",
          "type": "string"
        },
        {
          "internalType": "uint256",
          "name": "TamerId",
          "type": "uint256"
        },
        {
          "internalType": "uint256",
          "name": "productBoxNum",
          "type": "uint256"
        },
        {
          "internalType": "uint256",
          "name": "price",
          "type": "uint256"
        },
        {
          "internalType": "uint256",
          "name": "ProductDOP",
          "type": "uint256"
        },
        {
          "internalType": "uint256",
          "name": "ProductExp",
          "type": "uint256"
        },
        {
          "internalType": "address",
          "name": "owner",
          "type": "address"
        }
      ],
      "stateMutability": "view",
      "type": "function",
      "constant": true
    },
    {
      "inputs": [],
      "name": "name",
      "outputs": [
        {
          "internalType": "string",
          "name": "",
          "type": "string"
        }
      ],
      "stateMutability": "view",
      "type": "function",
      "constant": true
    },
    {
      "inputs": [],
      "name": "symbol",
      "outputs": [
        {
          "internalType": "string",
          "name": "",
          "type": "string"
        }
      ],
      "stateMutability": "view",
      "type": "function",
      "constant": true
    },
    {
      "inputs": [
        {
          "internalType": "uint256",
          "name": "FarmerId",
          "type": "uint256"
        },
        {
          "internalType": "uint256",
          "name": "Account",
          "type": "uint256"
        },
        {
          "internalType": "string",
          "name": "Location",
          "type": "string"
        }
      ],
      "name": "addFarmer",
      "outputs": [],
      "stateMutability": "nonpayable",
      "type": "function"
    },
    {
      "inputs": [
        {
          "internalType": "string",
          "name": "TamerType",
          "type": "string"
        },
        {
          "internalType": "uint256",
          "name": "_TamerId",
          "type": "uint256"
        },
        {
          "internalType": "uint256",
          "name": "_ProductBoxNum",
          "type": "uint256"
        },
        {
          "internalType": "uint256",
          "name": "_price",
          "type": "uint256"
        },
        {
          "internalType": "uint256",
          "name": "_ProductDOP",
          "type": "uint256"
        },
        {
          "internalType": "uint256",
          "name": "_ProductExp",
          "type": "uint256"
        }
      ],
      "name": "addProduct",
      "outputs": [],
      "stateMutability": "nonpayable",
      "type": "function"
    },
    {
      "inputs": [
        {
          "internalType": "uint256",
          "name": "_TamerIndex",
          "type": "uint256"
        },
        {
          "internalType": "uint256",
          "name": "_price",
          "type": "uint256"
        }
      ],
      "name": "changePrice",
      "outputs": [],
      "stateMutability": "nonpayable",
      "type": "function"
    },
    {
      "inputs": [
        {
          "internalType": "uint256",
          "name": "_TamerIndex",
          "type": "uint256"
        }
      ],
      "name": "buyTamer",
      "outputs": [],
      "stateMutability": "payable",
      "type": "function",
      "payable": true
    }
  ],
  "bytecode": "0x60806040523480156200001157600080fd5b5033600460006101000a81548173ffffffffffffffffffffffffffffffffffffffff021916908373ffffffffffffffffffffffffffffffffffffffff1602179055506040518060400160405280600581526020017f54616d657200000000000000000000000000000000000000000000000000000081525060029080519060200190620000a0929190620000f5565b506040518060400160405280600281526020017f544d00000000000000000000000000000000000000000000000000000000000081525060039080519060200190620000ee929190620000f5565b506200020a565b8280546200010390620001a5565b90600052602060002090601f01602090048101928262000127576000855562000173565b82601f106200014257805160ff191683800117855562000173565b8280016001018555821562000173579182015b828111156200017257825182559160200191906001019062000155565b5b50905062000182919062000186565b5090565b5b80821115620001a157600081600090555060010162000187565b5090565b60006002820490506001821680620001be57607f821691505b60208210811415620001d557620001d4620001db565b5b50919050565b7f4e487b7100000000000000000000000000000000000000000000000000000000600052602260045260246000fd5b611162806200021a6000396000f3fe6080604052600436106100915760003560e01c8063af94549511610059578063af94549514610176578063b3de019c146101b9578063b9429069146101e2578063bfb6c6251461021f578063f65b67cb1461024857610091565b806306fdde03146100965780631ffa0b30146100c15780638f32d59b146100dd57806395d89b41146101085780639eeb125b14610133575b600080fd5b3480156100a257600080fd5b506100ab610271565b6040516100b89190610e06565b60405180910390f35b6100db60048036038101906100d69190610c1e565b610303565b005b3480156100e957600080fd5b506100f26103f2565b6040516100ff9190610dd0565b60405180910390f35b34801561011457600080fd5b5061011d610418565b60405161012a9190610e06565b60405180910390f35b34801561013f57600080fd5b5061015a60048036038101906101559190610c1e565b6104aa565b60405161016d9796959493929190610e28565b60405180910390f35b34801561018257600080fd5b5061019d60048036038101906101989190610b41565b610594565b6040516101b09796959493929190610e28565b60405180910390f35b3480156101c557600080fd5b506101e060048036038101906101db9190610c47565b61068b565b005b3480156101ee57600080fd5b5061020960048036038101906102049190610b18565b61073d565b6040516102169190610deb565b60405180910390f35b34801561022b57600080fd5b5061024660048036038101906102419190610b7d565b61075d565b005b34801561025457600080fd5b5061026f600480360381019061026a9190610c83565b610908565b005b60606002805461028090610fe5565b80601f01602080910402602001604051908101604052809291908181526020018280546102ac90610fe5565b80156102f95780601f106102ce576101008083540402835291602001916102f9565b820191906000526020600020905b8154815290600101906020018083116102dc57829003601f168201915b5050505050905090565b600560008281526020019081526020016000206003015434101561035c576040517f08c379a000000000000000000000000000000000000000000000000000000000815260040161035390610ebe565b60405180910390fd5b6005600082815260200190815260200160002060060160009054906101000a900473ffffffffffffffffffffffffffffffffffffffff1673ffffffffffffffffffffffffffffffffffffffff166108fc60056000848152602001908152602001600020600301549081150290604051600060405180830381858888f193505050501580156103ee573d6000803e3d6000fd5b5050565b600460009054906101000a900473ffffffffffffffffffffffffffffffffffffffff1681565b60606003805461042790610fe5565b80601f016020809104026020016040519081016040528092919081815260200182805461045390610fe5565b80156104a05780601f10610475576101008083540402835291602001916104a0565b820191906000526020600020905b81548152906001019060200180831161048357829003601f168201915b5050505050905090565b60056020528060005260406000206000915090508060000180546104cd90610fe5565b80601f01602080910402602001604051908101604052809291908181526020018280546104f990610fe5565b80156105465780601f1061051b57610100808354040283529160200191610546565b820191906000526020600020905b81548152906001019060200180831161052957829003601f168201915b5050505050908060010154908060020154908060030154908060040154908060050154908060060160009054906101000a900473ffffffffffffffffffffffffffffffffffffffff16905087565b6006602052816000526040600020602052806000526040600020600091509150508060000180546105c490610fe5565b80601f01602080910402602001604051908101604052809291908181526020018280546105f090610fe5565b801561063d5780601f106106125761010080835404028352916020019161063d565b820191906000526020600020905b81548152906001019060200180831161062057829003601f168201915b5050505050908060010154908060020154908060030154908060040154908060050154908060060160009054906101000a900473ffffffffffffffffffffffffffffffffffffffff16905087565b60011515600860003373ffffffffffffffffffffffffffffffffffffffff1673ffffffffffffffffffffffffffffffffffffffff16815260200190815260200160002060009054906101000a900460ff1615151461071e576040517f08c379a000000000000000000000000000000000000000000000000000000000815260040161071590610e9e565b60405180910390fd5b8060056000848152602001908152602001600020600301819055505050565b60086020528060005260406000206000915054906101000a900460ff1681565b60011515600860003373ffffffffffffffffffffffffffffffffffffffff1673ffffffffffffffffffffffffffffffffffffffff16815260200190815260200160002060009054906101000a900460ff161515146107f0576040517f08c379a00000000000000000000000000000000000000000000000000000000081526004016107e790610e9e565b60405180910390fd5b60006040518060e001604052808881526020018781526020018681526020018581526020018481526020018381526020013373ffffffffffffffffffffffffffffffffffffffff168152509050806005600080600081548092919061085490611017565b91905055815260200190815260200160002060008201518160000190805190602001906108829291906109e3565b506020820151816001015560408201518160020155606082015181600301556080820151816004015560a0820151816005015560c08201518160060160006101000a81548173ffffffffffffffffffffffffffffffffffffffff021916908373ffffffffffffffffffffffffffffffffffffffff16021790555090505050505050505050565b6000604051806060016040528085815260200184815260200183815250905080600760006001600081548092919061093f90611017565b919050558152602001908152602001600020600082015181600001556020820151816001015560408201518160020190805190602001906109819291906109e3565b509050506001600860003373ffffffffffffffffffffffffffffffffffffffff1673ffffffffffffffffffffffffffffffffffffffff16815260200190815260200160002060006101000a81548160ff02191690831515021790555050505050565b8280546109ef90610fe5565b90600052602060002090601f016020900481019282610a115760008555610a58565b82601f10610a2a57805160ff1916838001178555610a58565b82800160010185558215610a58579182015b82811115610a57578251825591602001919060010190610a3c565b5b509050610a659190610a69565b5090565b5b80821115610a82576000816000905550600101610a6a565b5090565b6000610a99610a9484610f0f565b610ede565b905082815260208101848484011115610ab157600080fd5b610abc848285610fa3565b509392505050565b600081359050610ad3816110fe565b92915050565b600082601f830112610aea57600080fd5b8135610afa848260208601610a86565b91505092915050565b600081359050610b1281611115565b92915050565b600060208284031215610b2a57600080fd5b6000610b3884828501610ac4565b91505092915050565b60008060408385031215610b5457600080fd5b6000610b6285828601610ac4565b9250506020610b7385828601610b03565b9150509250929050565b60008060008060008060c08789031215610b9657600080fd5b600087013567ffffffffffffffff811115610bb057600080fd5b610bbc89828a01610ad9565b9650506020610bcd89828a01610b03565b9550506040610bde89828a01610b03565b9450506060610bef89828a01610b03565b9350506080610c0089828a01610b03565b92505060a0610c1189828a01610b03565b9150509295509295509295565b600060208284031215610c3057600080fd5b6000610c3e84828501610b03565b91505092915050565b60008060408385031215610c5a57600080fd5b6000610c6885828601610b03565b9250506020610c7985828601610b03565b9150509250929050565b600080600060608486031215610c9857600080fd5b6000610ca686828701610b03565b9350506020610cb786828701610b03565b925050604084013567ffffffffffffffff811115610cd457600080fd5b610ce086828701610ad9565b9150509250925092565b610cf381610f5b565b82525050565b610d0281610f6d565b82525050565b6000610d1382610f3f565b610d1d8185610f4a565b9350610d2d818560208601610fb2565b610d36816110ed565b840191505092915050565b6000610d4e601a83610f4a565b91507f796f7520617265206e6f742074686520617574687572697a65640000000000006000830152602082019050919050565b6000610d8e601183610f4a565b91507f636865636b2074686520616d6f756e74200000000000000000000000000000006000830152602082019050919050565b610dca81610f99565b82525050565b6000602082019050610de56000830184610cea565b92915050565b6000602082019050610e006000830184610cf9565b92915050565b60006020820190508181036000830152610e208184610d08565b905092915050565b600060e0820190508181036000830152610e42818a610d08565b9050610e516020830189610dc1565b610e5e6040830188610dc1565b610e6b6060830187610dc1565b610e786080830186610dc1565b610e8560a0830185610dc1565b610e9260c0830184610cea565b98975050505050505050565b60006020820190508181036000830152610eb781610d41565b9050919050565b60006020820190508181036000830152610ed781610d81565b9050919050565b6000604051905081810181811067ffffffffffffffff82111715610f0557610f046110be565b5b8060405250919050565b600067ffffffffffffffff821115610f2a57610f296110be565b5b601f19601f8301169050602081019050919050565b600081519050919050565b600082825260208201905092915050565b6000610f6682610f79565b9050919050565b60008115159050919050565b600073ffffffffffffffffffffffffffffffffffffffff82169050919050565b6000819050919050565b82818337600083830152505050565b60005b83811015610fd0578082015181840152602081019050610fb5565b83811115610fdf576000848401525b50505050565b60006002820490506001821680610ffd57607f821691505b602082108114156110115761101061108f565b5b50919050565b600061102282610f99565b91507fffffffffffffffffffffffffffffffffffffffffffffffffffffffffffffffff82141561105557611054611060565b5b600182019050919050565b7f4e487b7100000000000000000000000000000000000000000000000000000000600052601160045260246000fd5b7f4e487b7100000000000000000000000000000000000000000000000000000000600052602260045260246000fd5b7f4e487b7100000000000000000000000000000000000000000000000000000000600052604160045260246000fd5b6000601f19601f8301169050919050565b61110781610f5b565b811461111257600080fd5b50565b61111e81610f99565b811461112957600080fd5b5056fea264697066735822122092085051f2ed7dac46e562407ba0267a4a56fc9df31512a77ed9f3d8346768f564736f6c63430008000033",
  "immutableReferences": {},
  "source": "// SPDX-License-Identifier: MIT\r\npragma solidity ^0.8.0;\r\n\r\ncontract  TAMER  {\r\n\r\n    struct Farmer {\r\n        uint FarmerId;\r\n        uint Account;\r\n        string Location;\r\n        \r\n    }\r\n    \r\n      struct Tamer {\r\n        string TamerType;\r\n        uint TamerId;\r\n        uint productBoxNum;\r\n        uint price;\r\n        uint ProductDOP;\r\n        uint ProductExp;\r\n        address owner;\r\n    }\r\n    \r\n    uint tamerCounter;\r\n    uint famerCounter;\r\n    string private _name;\r\n    string private _symbol;\r\n    address  public isOwner ;\r\n\r\n\r\n    constructor () {\r\n        isOwner =msg.sender;\r\n        _name = \"Tamer\";\r\n        _symbol = \"TM\";\r\n    }\r\n    \r\n    \r\n\r\n    function name() public view  returns (string memory) {\r\n        return _name;\r\n    }\r\n\r\n\r\n    function symbol() public view  returns (string memory) {\r\n        return _symbol;\r\n    }\r\n\r\n   \r\n    \r\n    mapping(uint => Tamer) public tamerIndex;\r\n    mapping(address => mapping(uint => Tamer)) public client;\r\n    mapping(uint256 => Farmer) private _Farmar;\r\n    mapping(address => bool) public isFarmer;\r\n    \r\n    \r\n    function addFarmer(uint FarmerId, uint Account, string memory Location ) public  {\r\n    Farmer memory newFarmer = Farmer(FarmerId, Account, Location);\r\n    _Farmar[famerCounter++] = newFarmer; \r\n    isFarmer[msg.sender]=true;\r\n    }\r\n\r\n    function addProduct(string memory TamerType ,uint _TamerId, uint _ProductBoxNum, uint _price, uint _ProductDOP, uint _ProductExp ) public  onlyFarmer{\r\n        Tamer memory newProduct = Tamer(TamerType,_TamerId, _ProductBoxNum, _price, _ProductDOP, _ProductExp, msg.sender);\r\n        tamerIndex[tamerCounter++] = newProduct;\r\n        }\r\n    \r\n    \r\n  modifier onlyFarmer(){\r\n      \r\n    require(isFarmer[msg.sender] == true , \"you are not the authurized\" );\r\n      _;\r\n    }\r\n     \r\n \r\n    \r\n     \r\n    function changePrice(uint _TamerIndex, uint _price) public  onlyFarmer{\r\n        tamerIndex[_TamerIndex].price = _price;\r\n    }\r\n    \r\n   \r\n    \r\n   function buyTamer(uint _TamerIndex) public  payable {\r\n      \r\n        require(msg.value >= tamerIndex[_TamerIndex].price, \"check the amount \");\r\n        \r\n        payable(tamerIndex[_TamerIndex].owner).transfer(tamerIndex[_TamerIndex].price);\r\n\r\n    } \r\n    \r\n    /*  function transferMoney( address to, uint256 _id) public {\r\n        //address owner=msg.sender;\r\n       require(msg.sender != to,\" You are the owner of this Insurance \");\r\n       require(ownerOf(_id) == msg.sender,\" Your not the Owner \");\r\n        _transfer(msg.sender, to, _id);\r\n        \r\n    }*/\r\n\r\n    \r\n}",
  "sourcePath": "C:/Users/K1Amm/OneDrive/ /FrontEnd Dates/frontend Dates1111/contracts/TAMER.sol",
  "compiler": {
    "name": "solc",
    "version": "0.8.0+commit.c7dfd78e.Emscripten.clang"
  },
  "schemaVersion": "3.3.4",
  "updatedAt": "2021-04-20T10:48:13.677Z",
  "networkType": "ethereum",
  "devdoc": {
    "kind": "dev",
    "methods": {},
    "version": 1
  },
  "userdoc": {
    "kind": "user",
    "methods": {},
    "version": 1
  }
}